:020000040800F2
:1000000000000320C10200088113000883130008C8
:1000100085130008871300088913000800000000FA
:100020000000000000000000000000008B1300082A
:100030008D130008000000008F13000891130008C2
:100040005D0D00085D0D00085D0D00085D0D0008E8
:100050005D0D00085D0D00085D0D00085D0D0008D8
:100060005D0D00085D0D00085D0D00085D0D0008C8
:100070005D0D00085D0D00085D0D00085D0D0008B8
:100080005D0D00085D0D00085D0D00085D0D0008A8
:100090005D0D00085D0D00085D0D00085D0D000898
:1000A0005D0D00085D0D00085D0D00085D0D000888
:1000B0005D0D00085D0D00085D0D00085D0D000878
:1000C0005D0D00085D0D00085D0D00085D0D000868
:1000D0005D0D00085D0D00085D0D00085D0D000858
:1000E0005D0D00085D0D00085D0D00085D0D000848
:1000F0005D0D00085D0D00085D0D00085D0D000838
:100100005D0D00085D0D00085D0D00085D0D000827
:100110005D0D00085D0D00085D0D00085D0D000817
:100120005D0D00085D0D00085D0D00085D0D000807
:100130005D0D00085D0D00085D0D00085D0D0008F7
:100140005D0D00085D0D00085D0D00085D0D0008E7
:100150005D0D00085D0D00085D0D00085D0D0008D7
:100160005D0D00085D0D00085D0D00085D0D0008C7
:100170005D0D00085D0D00085D0D00080000000029
:100180005D0D00085D0D00085D0D00085D0D0008A7
:100190005D0D00085D0D00085D0D00085D0D000897
:1001A0005D0D00085D0D00085D0D000800B583B011
:1001B00000F03AFD304B314A1360314A1360314B45
:1001C000314A03E052F8041B43F8041B2F498B42C9
:1001D000F8D32A4B1A682E4B9A4200D0FEE7284BE0
:1001E0001A682C4B9A42F9D1234B2B4A13602B4AA5
:1001F00013602B4B02E0002243F8042B294A934260
:10020000F9D3254B1B6813B9244B1B6803B1FEE7D8
:1002100000F016FD694601A800F002F9224C234BBC
:10022000E41AA410002504E0204B53F82530984729
:100230000135AC42F8DC1E4C1E4BE41AA41000251C
:1002400004E01C4B53F8253098470135AC42F8DCEC
:100250000099019800F0E4FF0546174C174BE41A8B
:10026000A41004E0013C154B53F824309847002CAF
:10027000F8DC284601F098F8BABADECA000000207F
:100280007C000020000000201044000880000020B6
:1002900078563412325476988000002020010020D5
:1002A0008000002024010020140400081404000829
:1002B00014040008140400081404000814040008BE
:1002C00008B5FFF773FF00BEFEE71EF0040F0CBF7A
:1002D000EFF30880EFF309807146414A10472DE99A
:1002E000F04182B004460D46124B5F6BD3F8388064
:1002F0009E6A1B6B13F0020F03D00E4BDB6A002BC0
:100300000BDB0D4800F042FC009543463A4631466F
:10031000204600F099FC00BEFEE74BF6AB6100F012
:100320000DFD0028EDD0034B4FF00042DA6202B021
:10033000BDE8F08100ED00E0E041000800BEFEE70E
:100340001EF0040F0CBFEFF30880EFF30980714635
:10035000244A10472DE9F04182B004460D46084B6F
:100360005F6BD3F838809E6A064800F00FFC00955A
:1003700043463A463146204600F066FC00BEFEE7A2
:1003800000ED00E0F04100081EF0040F0CBFEFF399
:100390000880EFF309807146134A10472DE9F041B8
:1003A00082B004460D46084B5F6BD3F838809E6AD6
:1003B000064800F0EBFB009543463A46314620469E
:1003C00000F042FC00BEFEE700ED00E0FC4100084A
:1003D00000BEFEE700BEFEE700BEFEE7704700007D
:0C03E000DF020008550300089D03000820
:1003EC001044000800000020800000201044000889
:1003FC0000000010000000108000002024010020EC
:08040C000000001000000010C8
:1004200001230360014B0B60704700BF04000020F4
:1004300010B504460E4B18784FF47A73B3FBF0F303
:100440000C4A1068B0FBF3F000F08EF868B90F2C7E
:1004500001D901200AE0002221464FF0FF3000F0D0
:100460004BF8054B1C60002000E0012010BD00BFD0
:100470000C000020140000201000002008B50B4BD9
:100480001A6842F400721A601A6842F480621A60B4
:100490001A6842F480721A60032000F01BF80020F2
:1004A000FFF7C6FF00F050FF002008BD003C0240EF
:1004B000034A1168034B1B780B441360704700BF5D
:1004C0008C0000200C000020014B1868704700BF12
:1004D0008C000020074AD36823F4E0631B041B0C44
:1004E000000200F4E060034343F0BF6343F40033D1
:1004F000D360704700ED00E000B5194BDB68C3F333
:100500000223C3F1070CBCF1040F28BF4FF0040C09
:1005100003F1040EBEF1060F18D9033B4FF0FF3E66
:100520000EFA0CFC21EA0C0199400EFA03F322EAC0
:100530000303194300280BDB0901C9B200F1604035
:1005400000F5614080F800135DF804FB0023E5E747
:1005500000F00F000901C9B2024B1954F4E700BFC3
:1005600000ED00E014ED00E00138B0F1807F0BD227
:100570004FF0E0235861054AF02182F82310002053
:10058000986107221A6170470120704700ED00E072
:10059000002800F0E08170B582B00446036813F0D3
:1005A000010F3BD09F4B9B6803F00C03042B2CD016
:1005B0009C4B9B6803F00C03082B21D06368B3F5B8
:1005C000803F4FD0B3F5A02F52D0964B1A6822F43B
:1005D00080321A601A6822F480221A606368002B45
:1005E00050D0FFF771FF05468E4B1B6813F4003F98
:1005F00014D1FFF769FF401B6428F5D90320B1E14E
:10060000884B5B6813F4800FD8D0864B1B6813F4BB
:10061000003F03D06368002B00F09F81236813F034
:10062000020F54D07F4B9B6813F00C0F3ED07D4BD4
:100630009B6803F00C03082B33D0E368002B68D0D1
:10064000794B01221A60FFF73FFF0546754B1B6887
:1006500013F0020F54D1FFF737FF401B0228F5D9E2
:1006600003207FE16F4A136843F480331360B5E7DA
:100670006C4B1A6842F480221A601A6842F4803285
:100680001A60ABE7FFF720FF0546664B1B6813F4C3
:10069000003FC3D0FFF718FF401B6428F5D90320A3
:1006A00060E1604B5B6813F4800FC6D15D4B1B6843
:1006B00013F0020F03D0E368012B40F05081594A38
:1006C000136823F0F803216943EAC1031360236828
:1006D00013F0080F42D063696BB3534B0122C3F888
:1006E000802EFFF7F1FE05464E4B5B6F13F0020FB5
:1006F00034D1FFF7E9FE401B0228F5D9032031E190
:10070000484A136823F0F803216943EAC1031360E0
:10071000DDE7454B00221A60FFF7D6FE0546414B48
:100720001B6813F0020FD2D0FFF7CEFE401B022849
:10073000F5D9032016E13C4B0022C3F8802EFFF7C9
:10074000C3FE0546374B5B6F13F0020F06D0FFF771
:10075000BBFE401B0228F5D9032003E1236813F0F8
:10076000040F77D02F4B1B6C13F0805F33D1002325
:1007700001932C4B1A6C42F080521A641B6C03F0EC
:1007800080530193019B0125284B1B6813F4807F44
:1007900023D0A368012B34D0052B38D0214B1A6FFE
:1007A00022F001021A671A6F22F004021A67A36886
:1007B000002B3DD0FFF788FE06461A4B1B6F13F047
:1007C000020F46D1FFF780FE801B41F2883398422A
:1007D000F3D90320C6E00025D6E7144A136843F492
:1007E00080731360FFF770FE0646104B1B6813F40E
:1007F000807FCED1FFF768FE801B0228F5D9032049
:10080000B0E0084A136F43F001031367CFE7054BCD
:100810001A6F42F004021A671A6F42F001021A6757
:10082000C5E700BF003802400000474200700040AA
:10083000FFF74AFE0646524B1B6F13F0020F08D01B
:10084000FFF742FE801B41F288339842F3D9032020
:1008500088E0EDB9A369002B00F08380484A9268D4
:1008600002F00C02082A51D0022B17D0454B00226F
:100870001A66FFF729FE0446414B1B6813F0007F00
:1008800042D0FFF721FE001B0228F5D9032069E0C2
:100890003B4A136C23F080531364DBE7394B00228F
:1008A0001A66FFF711FE0546354B1B6813F0007FF3
:1008B00006D0FFF709FE401B0228F5D9032051E0BE
:1008C000E369226A1343626A43EA8213A26A520806
:1008D000013A43EA0243E26A43EA0263284A536068
:1008E000284B01221A66FFF7EFFD0446244B1B68D4
:1008F00013F0007F06D1FFF7E7FD001B0228F5D9B2
:1009000003202FE000202DE000202BE0012B2BD036
:100910001B4B5B6803F48001E269914226D103F02E
:100920003F02216A8A4223D1616A47F6C0721A40A7
:10093000B2EB811F1ED103F44031A26A5208013A82
:10094000B1EB024F18D103F07063E26AB3EB026FB0
:1009500014D1002006E001207047012002E00120B0
:1009600000E0002002B070BD0120FBE70120F9E7A4
:100970000120F7E70120F5E70120F3E70120F1E787
:10098000003802400000474208B5254B9B6803F041
:100990000C03042B3FD0082B3FD1214B5A6802F0A7
:1009A0003F025B6813F4800F12D01D4B5968C1F3EE
:1009B00088111C480023A1FB000102F063FC184BC6
:1009C0005B68C3F3014301335B00B0FBF3F025E048
:1009D000134B5968C1F3881C4FEA4C11B1EB0C0062
:1009E0006EEB0E0E4FEA8E1343EA90638101091AF3
:1009F00063EB0E03DB0043EA5173C90011EB0C0CEF
:100A000043F10003990200234FEA8C2041EA9C51F4
:100A100002F038FCD3E7034800E0034808BD00BFFC
:100A20000038024040787D010024F400002800F0E6
:100A30009B8070B50D4604464F4B1B6803F00F03B7
:100A40008B4208D2CBB24C4A1370136803F00F03E9
:100A50008B4240F08B80236813F0020F17D013F005
:100A6000040F04D0454A936843F4E053936023682D
:100A700013F0080F04D0414A936843F46043936035
:100A80003E4A936823F0F003A1680B439360236808
:100A900013F0010F32D06368012B21D09A1E012A76
:100AA00025D9364A126812F0020F61D033498A689C
:100AB00022F0030213438B60FFF706FD06462F4B1F
:100AC0009B6803F00C036268B3EB820F16D0FFF74C
:100AD000FBFC801B41F288339842F0D9032042E0AE
:100AE000264A126812F4003FE0D101203BE0234A7D
:100AF000126812F0007FD9D1012034E01E4B1B6830
:100B000003F00F03AB4207D9EAB21B4B1A701B6804
:100B100003F00F03AB422DD1236813F0040F06D06E
:100B2000164A936823F4E053E1680B43936023680B
:100B300013F0080F07D0114A936823F4604321692A
:100B400043EAC1039360FFF71FFF0C4B9B68C3F39D
:100B500003130B4AD35CD8400A4B18600A4B186841
:100B6000FFF766FC002070BD012070470120FAE706
:100B70000120F8E70120F6E7003C0240003802407F
:100B80009C42000814000020100000200FB400B5A3
:100B900083B004AB53F8042B01938021074802F083
:100BA000DDFE002804DC03B05DF804EB04B0704700
:100BB0000146024800F034F8F5E700BF900000203D
:100BC0002DE9F04385B004460F46435633BB042558
:100BD00028462146ABBE0446384605B0BDE8F08342
:100BE00014F901CB04AA1A4402F810CC0133AB4229
:100BF000F6D304AA1344002203F8102C4FF0040883
:100C0000E94640464946ABBE8046761B002EE3D0FF
:100C10003546102E28BF10250023E8E70E46F5E7DD
:100C200008B5FFF7CDFF08BD08B500F0E1FB024AAB
:100C3000024B9A6008BD00BF0000000800ED00E014
:100C400008B500F0D7FB08BDF8B504460D461746B9
:100C50001E462748FFF79AFF21682648FFF796FFB0
:100C600061682548FFF792FFA1682448FFF78EFFCF
:100C7000E1682348FFF78AFF21692248FFF786FFD2
:100C800061692148FFF782FFA1692048FFF77EFFD5
:100C9000E1691F48FFF77AFF1E48FFF777FF2946F3
:100CA0001D48FFF773FF1D4CE16A1D48FFF76EFFFB
:100CB000216B1C48FFF76AFFE16B1B48FFF766FFDB
:100CC00015F0800F0AD115F4004F0CD11748FFF72B
:100CD0005DFF06991648FFF759FFF8BD39461548DC
:100CE000FFF754FFEFE731461348FFF74FFFEDE7FB
:100CF000C4400008D4400008E4400008F440000864
:100D0000044100081441000824410008344100084F
:100D100044410008544100086041000800ED00E033
:100D2000704100088041000890410008C04100085F
:100D3000C8410008A0410008B041000883691A8832
:100D40008A4201D0002070470268033A012A01D983
:100D5000002070470233836101207047FEE70000E6
:100D60002DE9F04782B000AF0D46041E1FDBA246FE
:100D700000260136454B83FB0423E417D4EBA30480
:100D8000F7D1F31D23F00703ADEB030DE9460A226B
:100D90006946504602F00AFC002D0FDA6B42B3425E
:100DA0003BDA99F900302D2B21D101351FE0C4F138
:100DB000000A2D213648FFF7E9FED9E751463548AC
:100DC000FFF7E4FE04E000213248FFF7DFFE0134C4
:100DD000AC42F8DB3048FFF7D9FE0837BD46BDE826
:100DE000F08719F904102A48FFF7D0FE013405EB0B
:100DF0000608A045F5DC2C212548FFF7C7FE06E0D4
:100E000019F908102248FFF7C1FE08F10108B045A2
:100E1000F6DD2148FFF7BAFEDFE700211D48FFF7A6
:100E2000B5FE2C211A48FFF7B1FE04E00021194855
:100E3000FFF7ACFE0134204601F0E2FE8046894611
:100E40006E42504602F08CFB01F0DAFE00F0A0FB8F
:100E500000F022FBC7E90001304601F0D1FED7E9DE
:100E6000002301F07FFD00224FF0804301F07AFD66
:100E700002460B464046494602F0A8F90028D5D163
:100E800051460648FFF782FEA7E700BF6766666621
:100E90000C420008104200085C410008144200089F
:100EA0002DE9F84304460F460568012D3CD015B9DD
:100EB0003B68012B43D0012D00D000256368786882
:100EC000834245DDD7F80880181A01F099FE0246E2
:100ED0000B460020314900F08FFB06460F46404686
:100EE00001F08EFE32463B4601F0F4FE06460F4608
:100EF000A06801F085FE32463B4601F035FD02F068
:100F000099F90646646831462548FFF73FFE64427A
:100F100021462448FFF73AFE002D3AD121463046BB
:100F2000FFF71EFFBDE8F8830B68002BBFD10360FD
:100F30000146384600F038F801232360F2E7002329
:100F40003B603946204600F02FF801233B60E9E77B
:100F5000A468C01A01F054FE02460B4600200F4957
:100F600000F04AFB80468946204601F049FE424691
:100F70004B4601F0AFFE80468946B86801F040FE5E
:100F800042464B4601F0F0FC02F054F906467C68FC
:100F9000B9E721467042FFF7E3FEC3E700002440B3
:100FA0003042000818420008F8B506460C460368AF
:100FB000012B3BD02368012B44D0706862689042BB
:100FC00049DDA768801A01F01BFE02460B4600208F
:100FD000324900F011FB04460D46384601F010FE80
:100FE00022462B4601F076FE04460D46B06801F01D
:100FF00007FE02460B462046294601F0B3FC024696
:101000000B46104603F1004102F014F905467468DE
:1010100029462348FFF7BAFD644221462148FFF7DD
:10102000B5FD21462846FFF79BFEF8BD0B68002B57
:10103000C0D101230B6001462046FFF731FF00239A
:101040002360F2E70023236021463046FFF728FFA4
:1010500001232360E9E7B568101A01F0D1FD0246CB
:101060000B4600200D4900F0C7FA06460F462846F9
:1010700001F0C6FD32463B4601F02CFE06460F4607
:10108000A06801F0BDFD02460B463046394601F02E
:1010900069FC02F0CFF805466468B9E70000244017
:1010A000304200081842000838B58D68836803FB99
:1010B00005F54B6844681C440368012B11D013B933
:1010C0000B68012B10D029460F48FFF75FFD6442E3
:1010D00021460E48FFF75AFD21462846FFF740FEFD
:1010E00038BD0A68002AEAD16D4229460648FFF752
:1010F0004DFD644221460548FFF748FD214628463C
:10110000FFF72EFEECE700BF20420008184200085F
:1011100070B58368094A02FB03F3836045680635AE
:1011200045608C6893FBF4F44E680548FFF72EFD8C
:10113000711B2046FFF714FE70BD00BF40420F0038
:101140003C420008024600E0013090F9003023B133
:1011500013708B42F8D00132F6E71370704710B469
:101160000346002404E093F900208A4208D00130AD
:1011700090F9002032B11A70002CF4D00133F2E75C
:101180000124F4E71A7010BC704772B67047000073
:1011900000B595B03022002108A802F01FFA002304
:1011A0000393049305930693079301931A4A116CD2
:1011B00041F080511164126C02F080520192019A48
:1011C000029316490A6822F4404242F480420A60BF
:1011D0000A6802F440420292029A02220892012214
:1011E0000B9210220C920E9308A8FFF7D1F968B960
:1011F0000F2303930021049105910691079103A801
:10120000FFF714FC28B915B05DF804FBFFF7BDFF2C
:10121000EEE7FFF7BAFFF6E7003802400070004043
:1012200030B587B0FFF72AF9FFF7B2FF052002F0CB
:10123000BFF904463E4902F08DFA21463D48FFF7CA
:10124000A5FC204602F08EFA02F0B2F905462146CE
:1012500002F080FA94F900302D2B53D00023039331
:101260002E212046FFF76EFF204602F07DF9059003
:101270002E212846FFF773FF284602F073FA0490E8
:10128000052002F095F904462B4902F063FA214645
:101290002A48FFF77BFC204602F064FA02F088F946
:1012A0000546214602F056FA94F900302D2B34D031
:1012B000002300932E212046FFF744FF204602F032
:1012C00053F902902E212846FFF749FF284602F0E5
:1012D00049FA01901A48FFF759FC694603A8FFF73D
:1012E000DFFD1848FFF752FC694603A8FFF75CFED4
:1012F000694603A8FFF7D8FE694603A8FFF708FF71
:1013000007B030BD012303932D212046FFF71AFFBC
:101310002D212846FFF716FFA2E7012300932D2178
:101320002046FFF70FFF2D212846FFF70BFFC1E7EF
:101330004842000854420008644200087042000815
:10134000804200088C42000882B0002100910B4BC3
:101350005A6C42F480425A645A6C02F48042009201
:10136000009A01911A6C42F080521A641B6C03F0CF
:1013700080530193019B02B0704700BF00380240C8
:10138000FEE7FEE7FEE7FEE7FEE7704770477047BF
:1013900008B5FFF78DF808BD08B502F0E9F8162387
:1013A00003604FF0FF3008BD08B54FF0FF31FFF785
:1013B000F3FFFEE708B503460B4A126842B10A4A3A
:1013C000106803446A46934206D8074A136008BD72
:1013D000054A06491160F2E702F0CAF80C230360DF
:1013E0004FF0FF30F3E700BF100100202401002080
:1013F00070470000224B9B6803F00C03042B14D0B1
:10140000082B16D01BB11F4B1F4A1A6002E01D4B60
:101410001D4A1A601A4B9B68C3F303131B4AD15C25
:10142000184A1368CB4013607047164B184A1A606D
:10143000F0E7134B59685A6802F03F0211F4800F2D
:1014400013D0134BB3FBF2F30D4A5268C2F3881268
:1014500002FB03F30A4A5268C2F30142013252000E
:10146000B3FBF2F3074A1360D4E7074BB3FBF2F385
:10147000034A5268C2F3881202FB03F3EAE700BF93
:1014800000380240140000200024F4009C420008B0
:1014900040787D0100000000C1F30A52F8B5A2F2C5
:1014A000FF35132D0B4684460C46064630DC002DD6
:1014B0001EDB354F2F4101EA0702024315D030A34E
:1014C000D3E9002301F050FA0022002301F092FE3C
:1014D00048B1002C04DA4FF4801343FA05F52C448C
:1014E00024EA070400262346B44660461946F8BDA0
:1014F00023A3D3E9002301F037FA0022002301F0EF
:1015000079FE0028EFD0002C24DB00263446EAE7E1
:10151000332D08DDB5F5806FE7D1024601F024FADE
:1015200084460B46E1E7A2F213424FF0FF37D74063
:101530000742DAD012A3D3E9002301F015FA002202
:10154000002301F057FE0028CDD0002C0BDB26EA4B
:101550000706C8E724F000430C4A1E43002E18BFBC
:1015600014460026BFE7142D08D00123C5F1340529
:1015700003FA05F5AE1928BFE418E8E70134E6E7F9
:101580009C7500883CE4377EFFFF0F000000F0BF31
:10159000F8B504460D4600F09FF8224606460F4671
:1015A0002B462046294601F02FFE98B90022002341
:1015B0002046294601F00AFE60B1002200232046A1
:1015C000294601F0EFFD40B101F0D2FF084F222380
:1015D0000360002630463946F8BD01F0C9FF0346D6
:1015E00021221A600348BDE8F84001F035B900BF78
:1015F0000000F0FFE04000082DE9F84314461D46C6
:101600008046894600F0C0FA224606460F462B4621
:101610002046294601F0F8FD78B900220023404613
:10162000494601F0BFFDD8B10022002320462946DB
:1016300001F0B8FD28B1264F002630463946BDE8F6
:10164000F8832046294601F001F90028F5D020460C
:1016500029460022002301F0AFFD0028EDD02CE048
:101660003046394601F0F2F8A0B10022002330469E
:10167000394601F097FD0028DFD04046494601F089
:10168000E5F80028D9D02046294601F0DFF80028E7
:10169000D3D012E04046494601F0D8F80028E4D003
:1016A0002046294601F0D2F80028DED032463B46DB
:1016B0003046394601F0A8FD20B901F059FF222338
:1016C0000360BAE701F054FF21230360B5E700BFD0
:1016D0000000F03F00000000B1F5801F2DE9F84345
:1016E00004460D460B4619DA21F00042024359D058
:1016F00000295FDB3A4B002201F0ECFA394A0B4635
:1017000093420D4604466FF035010CDD22462B4610
:101710002046294601F028F9BDE8F883314A934272
:101720004FF00001F2DC1815A0F2FF300844C70F9B
:1017300000EBD070C3F3130601F062FAC7F57F73B4
:10174000033346EA03550F4606462946204600F075
:101750004FF81DA3D3E90023804689463046394619
:1017600001F0B8FA1AA3D3E9002304460D46404617
:10177000494601F0AFFA02460B462046294601F0E1
:10178000F3F815A3D3E9002304460D463046394645
:1017900001F0A0FA02460B462046294601F0E4F883
:1017A000BDE8F883002200230F49002001F0BCFBB4
:1017B000BDE8F883024601F0D5F80022002301F0CD
:1017C000B3FBA9E7AFF30080362BF111F3FE593DCF
:1017D0000EE526157BCBDB3F00609F501344D33FC3
:1017E00000005043FFFFEF7F000050C300000000E7
:1017F0002DE9F04FB1F5801F87B002460B460D462C
:1018000080F2828021F00044044300F0218100290D
:10181000C0F26181D64B002201F05CFA0D460B4606
:10182000D4498D4202466FF0350072DC2C15C5F3A9
:10183000130505F51521A4F2FF3401F66471044483
:1018400001F4801104EB115481F07F5181F44011B7
:1018500041EA0503104619460022C74B01F082F801
:10186000AB1CC3F31303022B82468B4658DC0022C9
:10187000002301F097FC002840F0F380A8A3D3E9EF
:1018800000235046594601F025FA02460B46002037
:10189000BA4901F067F8524606460F465B46504685
:1018A000594601F017FA02460B463046394601F018
:1018B00011FA06460F46002C00F00481204601F084
:1018C0009FF999A3D3E900238046894601F002FAE3
:1018D00097A3D3E9002304460D464046494601F04C
:1018E000F9F902460B463046394601F03BF85246BC
:1018F0005B4601F037F802460B462046294601F0C8
:1019000031F807B0BDE8F08F9A498D424FF00000E2
:101910008CDD1046194601F027F807B0BDE8F08FBE
:10192000A5F5C223A3F27A43019300224FF080432E
:1019300001F01AF802460B465046594601F0F4FAF7
:10194000064620460F4601F05BF93246CDE9040118
:101950003B4630463946CDE9026701F0BBF9024605
:101960000B468046894601F0B5F973A3D3E90023FD
:1019700006460F4601F0AEF971A3D3E9002300F04B
:10198000F3FF32463B4601F0A5F96FA3D3E90023EC
:1019900000F0EAFF32463B4601F09CF96CA3D3E924
:1019A000002300F0E1FF42464B4601F093F96AA3A1
:1019B000D3E90023804689463046394601F08AF94A
:1019C00067A3D3E9002300F0CFFF32463B4601F086
:1019D00081F965A3D3E9002300F0C6FF32463B46F8
:1019E00001F078F90B4602464946404600F0BCFF3C
:1019F000C5F5D725019B51351D43002D06460F46E1
:101A00004BDD5E4B00225046594601F063F95246C9
:101A10005B4601F05FF980468946304639464246CA
:101A20004B4600F0A1FFDDE9022301F053F9064621
:101A30000F46002C56D102460B464046494600F060
:101A400091FF02460B465046594600F08BFF64E773
:101A5000002200234A49002001F066FA07B0BDE8E1
:101A6000F08F002C57D0204601F0CAF82EA3D3E9FE
:101A7000002306460F4601F02DF92DA3D3E90023DC
:101A800004460D463046394601F024F902460B461D
:101A90002046294600F068FF3FE702460B465046C5
:101AA000594600F05FFFDDE9022301F013F9064615
:101AB0000F463CB1DDE904891BA3D3E9002340466E
:101AC000494603E732463B465046594600F04AFF36
:101AD00007B0BDE8F08F00F045FF0022002301F0C1
:101AE00023FA1AE710A3D3E90023DDE9040101F08A
:101AF000F1F80FA3D3E9002304460D46DDE9040104
:101B000001F0E8F832463B4600F02EFF02460B4655
:101B100040464946E9E600200021FEE6AFF300809A
:101B2000555555555555D53F0000E0FE422EE63F30
:101B3000763C7935EF39EA3D44523EDF12F1C23F3F
:101B4000DE03CB966446C73F599322942449D23F83
:101B5000935555555555E53F9FC678D0099AC33FD3
:101B6000AF788E1DC571CC3F04FA97999999D93FEA
:101B700000005043FFFFEF7F0000F03F0000E03F18
:101B8000000050C3000000002DE9F04F23F0004B8F
:101B900088465BEA020193B014461D46074611D100
:101BA000031888F4002275485241994270EB0203F1
:101BB00020D23846414622462B4600F0D5FE13B0CF
:101BC000BDE8F08F10466E4A28F0004991459A46CC
:101BD00046463B4615DD06F1404606F580161E4397
:101BE000E7D12319654985F4002252419E4271EBE9
:101BF0000203DED3634C00231846214613B0BDE830
:101C0000F08F3ED05E4A9345E5DC00F08880002EE0
:101C100069DB0022009278B9594A934500F083802D
:101C2000584A934500F09780BAF1804F00F09584B0
:101C3000554A924500F0B58338464146029300F07C
:101C400001FE029B4BB3009AF30F013B0A9313432F
:101C500000F088804D4B9B4540F39E8003F1047358
:101C60009B454B4B40F30C84994540F38684BAF175
:101C7000000F40F38684002013B0BDE8F04F00F061
:101C8000DBBD002F95D1BDE738464146009300F0FB
:101C9000D9FD009B002B65D10093B9F1000F04D052
:101CA000384B26F040429A42CDD1BAF1000F05DA06
:101CB00002460B460020334901F036F9002EBFF6EC
:101CC0007EAF009B09F1404909F5801959EA0303E9
:101CD00040F0678402460B4600F044FE02460B4685
:101CE00001F022F96BE72B4A93452EDCA2F15472E6
:101CF00093450FDD4FEA2B52A2F2FF32142A40F334
:101D00004284C2F1340220FA02F101FA02F2824264
:101D100000F0708400220092002881D08CE7002817
:101D20003FF475AF57E709F1404202F580121343C3
:101D30003FF460AF164B994540F36783BAF1000F4B
:101D4000C0F25D832046294639E70222009200282E
:101D50003FF462AF70E7BAF1000FC0F2F683384685
:101D600041462CE73A4643463846414600F0FAFDE4
:101D700002460B4601F0D8F821E700BF0000F0FF53
:101D80000000F07F0000F03F0000E03F0000E04175
:101D9000FFFFEF3FFFFF3F43D54B334000222BB9FE
:101DA000D44B00F097FF6FF0340289464FEA295375
:101DB000A3F2FF339A18D04B0B92C9F3130949F0E1
:101DC0007F56994546F4401607DDCC4B994540F3C4
:101DD000F18301320B92A6F5801600220023CDE993
:101DE0000823CDE91023C64B0022CDE906230027A6
:101DF000DDE906233146824600F0B4FDB346DDE955
:101E000006238046894650463146CDE90CAB00F0AA
:101E1000ABFD02460B460020B94901F085F80A46A1
:101E20000146CDE90E12134649460246404600F0EF
:101E300051FF0A4683469446CDE902BC4FF0000CA0
:101E4000CDF808C07610DDE902AB46F00056014639
:101E500006F50023CDE904120020D91906460F46E5
:101E600002460B465046594600F034FF02460B46E8
:101E70004046494600F076FDDDE906238046894666
:101E80003046394600F06EFD02460B46DDE90C0196
:101E900000F068FD52465B4600F01CFF02460B4610
:101EA0004046494600F05EFDDDE90E2300F012FFDA
:101EB000DDE90467CDE9060132463B463046394646
:101EC00000F008FF78A3D3E9002306460F4600F090
:101ED00001FF77A3D3E9002300F046FD32463B46DD
:101EE00000F0F8FE74A3D3E9002300F03DFD324674
:101EF0003B4600F0EFFE72A3D3E9002300F034FD6F
:101F000032463B4600F0E6FE6FA3D3E9002300F023
:101F10002BFD32463B4600F0DDFE6DA3D3E90023E6
:101F200000F022FD3246804689463B46304639461F
:101F300000F0D0FE02460B464046494600F0CAFE7D
:101F4000524606460F465B46DDE9040100F00CFDF3
:101F5000DDE9062300F0BEFE32463B4600F004FDFC
:101F60005246804689465B465046594600F0B2FECE
:101F700002460B46CDE90C23624B002200F0F4FC34
:101F800042464B4600F0F0FC00260F4632463B46E8
:101F90005046594600F09EFE5A4B82468B46002220
:101FA0003046394600F0DEFCDDE90C2300F0DAFCB7
:101FB00002460B464046494600F0D4FCDDE90423C6
:101FC00000F088FE3246804689463B46DDE9060140
:101FD00000F080FE02460B464046494600F0C4FC35
:101FE0008046894602460B465046594600F0BCFCE6
:101FF000002639A3D3E9002330460F4600F06AFEDD
:1020000052465B4682468B463046394600F0AAFC73
:1020100002460B464046494600F0A4FC30A3D3E9F3
:10202000002300F057FE30A3D3E900238046894601
:102030003046394600F04EFE02460B4640464946C1
:1020400000F092FCDDE9102300F08EFC80460B9836
:10205000894600F0D5FD424606460F464B4650469F
:102060005946CDE904AB00F07FFCDDE9082300F020
:102070007BFC32463B4600F077FC4FF0000A3246CC
:102080003B4650468B4600F06DFCDDE9082300F02E
:1020900069FCDDE9042300F065FC02460B4640467E
:1020A000494600F05FFC2FE0EF4E454A287ECA3FCC
:1020B00065DBC9934A86CD3F01411DA96074D13FBC
:1020C0004D268F515555D53FFFAB6FDBB66DDB3FCE
:1020D000033333333333E33F000000E009C7EE3FFF
:1020E000FD033ADC09C7EE3FF5015B14E02F3EBE6D
:1020F0000000F07F000040438E98030079B60B008B
:102100000000F03F00000840CDE90201009B0A9A60
:10211000013B13430CBFD44BD44B0022CDE9042325
:102120000023CDE900450093DDE9008920464246C1
:102130004B46294600F016FC52465B4600F0CAFDAD
:10214000224606460F462B46DDE9020100F0C2FD9D
:1021500002460B463046394600F006FC42464B46E6
:1021600006460F465046594600F0B4FD0B4602465F
:1021700004460D463046394600F0F6FBBC4B99420A
:10218000804689468A4640F3168101F13F4303F5B4
:10219000E003034340F02382A1A3D3E900233046A8
:1021A000394600F0E1FB2246CDE900012B464046CE
:1021B000494600F0D7FB02460B46DDE9000101F07D
:1021C00019F8002840F00B82CAF30A534FF480122A
:1021D000A3F2FE3342FA03F35344A649C3F30A526F
:1021E000A2F2FF3241FA02FCC3F31301C2F114025E
:1021F00041F4801141FA02FE002023EA0C01BAF1F9
:10220000000FCDF808E002460B4602DA714649425B
:1022100002912046294600F0A5FB029B1B05009376
:1022200002460B4604460D463046394600F09CFBFC
:1022300089464FF000087CA3D3E900234046494675
:1022400000F048FD224682468B462B4640464946D2
:1022500000F088FB02460B463046394600F082FB10
:1022600073A3D3E9002300F035FD73A3D3E9002362
:1022700004460D464046494600F02CFD02460B46FA
:102280002046294600F070FB06460F4602460B46E4
:102290005046594600F068FB52465B4604460D46E0
:1022A00000F060FB02460B463046394600F05AFB10
:1022B000224682468B462B462046294600F00AFDE0
:1022C0005FA3D3E9002306460F4600F003FD5EA39B
:1022D000D3E9002300F046FB32463B4600F0FAFC0F
:1022E0005BA3D3E9002300F03FFB32463B4600F0FE
:1022F000F1FC59A3D3E9002300F034FB32463B46FE
:1023000000F0E8FC56A3D3E9002300F02DFB324691
:102310003B4600F0DFFC02460B462046294600F013
:1023200021FB06460F4602460B462046294600F092
:10233000D1FC002280468946304639464FF0804322
:1023400000F010FB02460B464046494600F0ECFD0B
:10235000524606460F465B462046294600F0BAFC28
:1023600052465B4600F000FB02460B4630463946BB
:1023700000F0F8FA22462B4600F0F4FA02460B462B
:1023800000203A4900F0EEFA009D0C462C44B4F5CA
:10239000801FC0F220812146DDE9042300F09AFC71
:1023A0000DE4002EFFF648AC3846414613B0BDE8B8
:1023B000F04F00F055B9DFF8C0C021F0004363458D
:1023C00040F3D3802D4B0B4403430AD122462B46C6
:1023D00000F0C8FA32463B4600F002FF00283FF406
:1023E000F3AEDDE904010022002300F0E5FE003831
:1023F00018BF012013B0BDE8F04F00F017BA00235A
:10240000002418462146FFF7DABBBAF1000FF6DACE
:1024100005F1004320461946FFF7D1BBAFF300801A
:10242000FE822B654715973C00000000432EE63FD7
:10243000EF39FAFE422EE63F396CA80C615C20BEF3
:10244000D0A4BE726937663EF16BD2C541BDBB3EBA
:102450002CDE25AF6A56113F93BDBE166CC1663F98
:102460003E5555555555C53F0000F0BF0000F03FA3
:10247000FFFF8F40FFFF0F00FFCB904000346F3F06
:1024800099457ADB724B99453FF7F1AB704B0022CF
:1024900000F068FA62A3D3E9002306460F4600F075
:1024A00019FC61A3D3E900238046894630463946AA
:1024B00000F010FC674B82468B46002230463946BE
:1024C00000F008FC02460B4659A1D1E9000100F0DA
:1024D00049FA32463B4600F0FDFB02460B4600201F
:1024E0005D4900F03FFA3246CDE902013B463046F5
:1024F000394600F0EFFB02460B46DDE9020100F031
:10250000E9FB4DA3D3E9002300F0E4FB02460B46B0
:102510005046594600F026FA02460B4606460F463C
:102520004046494600F020FA4FF0000A42464B462A
:1025300050468B4600F016FA02460B4630463946A6
:1025400000F010FACDE90201E0E53A464346404981
:10255000002000F0E9FCFFF732BB3A46384643461C
:10256000414600F0B7FBFFF72ABB3B4A934252DCDF
:10257000DDE90023009202925BE6BAF1000FFFF65C
:102580007AAB002036E700287FF47EABC2F114025C
:102590004BFA02F101FA02F25A4535D00090FFF7EA
:1025A0003FBB009B012B7FF40AAB01F100431946AE
:1025B000FFF705BB22A3D3E90023CDE9082322A31B
:1025C000D3E90023CDE91023244B0022CDE90623D3
:1025D0004FF480270CE4029A00F046F9DCE6DDE9CE
:1025E00004010022002300F0E7FD003818BF01209D
:1025F000FFF742BB01F00101C1F102020092002885
:102600003FF40EABFFF718BB01F00101C1F102026C
:102610000092FFF705BB1B15D8E500BFAFF30080A4
:10262000000000604715F73F44DF5DF80BAE543EF5
:10263000555555555555D53FFE822B654715F73FE6
:102640000000004003B8E23F06D0CF43EBFD4C3E14
:102650000000F03F0000D03F0000E03F0000F83FE6
:102660005F4A8A432DE9F04106460D4600F09B8003
:1026700000290B46044655DD091561D0C3F3130349
:1026800043F48012C8074FEAD473A1F2FF3703EB7B
:1026900042034FEA440C05D44FEADC7C0CEB4303C5
:1026A0004FEA840C00267F104FF0160E34464FF48C
:1026B0000012A118994202DC5B1A8C1816445B00C8
:1026C000BEF1010E03EBDC734FEA52024FEA4C0CF1
:1026D000EFD1754620204FF000420AE040D04FEA8B
:1026E000DC71013801EB43034FEA4C0C4FEA520214
:1026F0003FD0A34202EB0E01F0DD002901EB020EF8
:102700000ADBA0461B1B614588BF03F1FF33ACEB1E
:10271000010C15444446E2E7BEF1000FF1DB04F181
:102720000108EFE721F00042024332D0002948D1EE
:10273000E20A153913466405002AF9D0D7024AD4B3
:1027400000205B00DE02054600F10100F9D51A46C3
:1027500023468440C0F12000C340491B13438DE74A
:102760006145BCD8002901EB020ED5DB9846002359
:10277000CDE753EA0C0310D168087310F20703F198
:102780007F5303F5001348BF40F0004003EB0755AB
:10279000064630462946BDE8F081691C16BF681C14
:1027A00001364008E9E702460B4600F093FA32464C
:1027B0002B4600F0D9F806460D4630462946BDE8BE
:1027C000F081024600F0CEF802460B4600F0ACFB6A
:1027D00006460D46DDE7234620204FF0FF35BBE7D8
:1027E0000000F07FD0B506460F46144600F0C0FE4C
:1027F0000346394630461C60D0BD00BF30B583B0BB
:1028000080B1144603F10045CDE900451046194654
:10281000DDE9002300F05EFA222203B0BDE830407B
:10282000FFF7E0BF14461D46EEE700BF00224FF061
:102830008053FFF7E3BF00BF00224FF0E043FFF7F4
:10284000DDBF00BF21F00041704700BF41F00040F4
:1028500000F58010C00F704701490020704700BF8D
:102860000000F87F00000000C1F30A5370B58C46E9
:1028700004460D4616467BBB21F0004C03465CEA3D
:10288000030328D0304B002200F024FA2F4B9E4245
:1028900004460D461ADBC1F30A538C46363B3344DB
:1028A00040F2FE72934220DC002B3CDC13F1350F2A
:1028B0002CDA4CF250339E4217DC05F0004343F013
:1028C000D27141F4B731224841F01F011AA3D3E974
:1028D000002300F0FFF970BD40F2FF729342DED199
:1028E00002460B4600F040F870BD05F0004343F08F
:1028F000FC4141F45F1141F4105111A3D3E90023CD
:10290000144841F03C0100F0E5F970BD2CF0FF4C9B
:1029100036332CF4E00C4CEA035120460E4B0022D7
:1029200000F0D8F970BD2CF0FF4C2CF4E00C2046E0
:102930004CEA035170BD00BF59F3F8C21F6EA501E8
:102940009C7500883CE4377E00005043B03CFFFF9C
:1029500059F3F8C29C7500880000903C81F000415A
:1029600002E000BF83F0004330B54FEA41044FEA74
:10297000430594EA050F08BF90EA020F1FBF54EA0F
:10298000000C55EA020C7FEA645C7FEA655C00F0AB
:10299000E2804FEA5454D4EB5555B8BF6D420CDD7C
:1029A0002C4480EA020281EA030382EA000083EAFF
:1029B000010180EA020281EA0303362D88BF30BD9F
:1029C00011F0004F4FEA01314FF4801C4CEA1131F5
:1029D00002D0404261EB410113F0004F4FEA033354
:1029E0004CEA133302D0524263EB430394EA050FDF
:1029F00000F0A780A4F10104D5F1200E0DDB02FA4E
:102A00000EFC22FA05F2801841F1000103FA0EF2E1
:102A1000801843FA05F359410EE0A5F120050EF1A7
:102A2000200E012A03FA0EFC28BF4CF0020C43FAD8
:102A300005F3C01851EBE37101F0004507D54FF0E5
:102A4000000EDCF1000C7EEB00006EEB0101B1F535
:102A5000801F1BD3B1F5001F0CD349085FEA30007B
:102A60004FEA3C0C04F101044FEA445212F5800F86
:102A700080F09A80BCF1004F08BF5FEA500C50F123
:102A8000000041EB045141EA050130BD5FEA4C0C06
:102A9000404141EB0101013C28BFB1F5801FE9D263
:102AA00091F0000F04BF01460020B1FA81F308BF86
:102AB0002033A3F10B03B3F120020CDA0C3208DD52
:102AC00002F1140CC2F10C0201FA0CF021FA02F12D
:102AD0000CE002F11402D8BFC2F1200C01FA02F19D
:102AE00020FA0CFCDCBF41EA0C019040E41AA2BFC2
:102AF00001EB0451294330BD6FEA04041F3C1CDA8A
:102B00000C340EDC04F11404C4F1200220FA04F0A9
:102B100001FA02F340EA030021FA04F345EA030153
:102B200030BDC4F10C04C4F1200220FA02F001FA15
:102B300004F340EA0300294630BD21FA04F0294697
:102B400030BD94F0000F83F4801306BF81F4801130
:102B50000134013D4EE77FEA645C18BF7FEA655CA3
:102B600029D094EA050F08BF90EA020F05D054EA75
:102B7000000C04BF1946104630BD91EA030F1EBF7A
:102B80000021002030BD5FEA545C05D1400049417E
:102B900028BF41F0004130BD14F580043CBF01F571
:102BA000801130BD01F0004545F0FE4141F4700157
:102BB0004FF0000030BD7FEA645C1ABF1946104632
:102BC0007FEA655C1CBF0B46024650EA013406BF33
:102BD00052EA033591EA030F41F4002130BD00BFF2
:102BE00090F0000F04BF0021704730B54FF48064AF
:102BF00004F132044FF000054FF0000150E700BF30
:102C000090F0000F04BF0021704730B54FF480648E
:102C100004F1320410F0004548BF40424FF000017B
:102C20003EE700BF42004FEAE2014FEA31014FEABE
:102C300002701FBF12F07F4393F07F4F81F060510D
:102C4000704732F07F4208BF704793F07F4F04BF58
:102C500041F40021704730B54FF4607401F0004535
:102C600021F000411CE700BF50EA010208BF704795
:102C700030B54FF000050AE050EA010208BF704786
:102C800030B511F0004502D5404261EB41014FF4EF
:102C9000806404F132045FEA915C3FF4D8AE4FF0F7
:102CA00003025FEADC0C18BF03325FEADC0C18BFDA
:102CB000033202EBDC02C2F1200300FA03FC20FA2B
:102CC00002F001FA03FE40EA0E0021FA02F1144478
:102CD000BDE600BF70B54FF0FF0C4CF4E06C1CEA91
:102CE00011541DBF1CEA135594EA0C0F95EA0C0F02
:102CF00000F0DEF82C4481EA030621EA4C5123EA75
:102D00004C5350EA013518BF52EA033541F48011A3
:102D100043F4801338D0A0FB02CE4FF00005E1FB56
:102D200002E506F00042E0FB03E54FF00006E1FBA0
:102D300003569CF0000F18BF4EF0010EA4F1FF04E3
:102D4000B6F5007F64F5407404D25FEA4E0E6D4123
:102D500046EB060642EAC62141EA55514FEAC52034
:102D600040EA5E504FEACE2EB4F1FD0C88BFBCF5B0
:102D7000E06F1ED8BEF1004F08BF5FEA500E50F161
:102D8000000041EB045170BD06F0004646EA010127
:102D900040EA020081EA0301B4EB5C04C2BFD4EB59
:102DA0000C0541EA045170BD41F480114FF0000E52
:102DB000013C00F3AB8014F1360FDEBF002001F0C0
:102DC000004170BDC4F10004203C35DA0C341BDC3A
:102DD00004F11404C4F1200500FA05F320FA04F00C
:102DE00001FA05F240EA020001F0004221F0004140
:102DF00010EBD37021FA04F642EB06015EEA430EB3
:102E000008BF20EAD37070BDC4F10C04C4F12005E2
:102E100000FA04F320FA05F001FA04F240EA020095
:102E200001F0004110EBD37041F100015EEA430E66
:102E300008BF20EAD37070BDC4F1200500FA05F286
:102E40004EEA020E20FA04F301FA05F243EA020305
:102E500021FA04F001F0004121FA04F220EA020014
:102E600000EBD3705EEA430E08BF20EAD37070BD5A
:102E700094F0000F0FD101F00046400041EB01013A
:102E800011F4801F08BF013CF7D041EA060195F01C
:102E9000000F18BF704703F00046520043EB0303D6
:102EA00013F4801F08BF013DF7D043EA06037047C3
:102EB00094EA0C0F0CEA135518BF95EA0C0F0CD0CE
:102EC00050EA410618BF52EA4306D1D181EA030114
:102ED00001F000414FF0000070BD50EA410606BF0E
:102EE0001046194652EA430619D094EA0C0F02D153
:102EF00050EA013613D195EA0C0F05D152EA033698
:102F00001CBF104619460AD181EA030101F00041B5
:102F100041F0FE4141F470014FF0000070BD41F0FE
:102F2000FE4141F4780170BD70B54FF0FF0C4CF4D8
:102F3000E06C1CEA11541DBF1CEA135594EA0C0FF7
:102F400095EA0C0F00F0A7F8A4EB050481EA030E44
:102F500052EA03354FEA013100F088804FEA03332B
:102F60004FF0805545EA131343EA12634FEA0222F9
:102F700045EA111545EA10654FEA00260EF00041BA
:102F80009D4208BF964244F1FD0404F5407402D20C
:102F90005B084FEA3202B61A65EB03055B084FEA9D
:102FA00032024FF480104FF4002CB6EB020E75EB9A
:102FB000030E22BFB61A754640EA0C005B084FEAC2
:102FC0003202B6EB020E75EB030E22BFB61A75463F
:102FD00040EA5C005B084FEA3202B6EB020E75EB8A
:102FE000030E22BFB61A754640EA9C005B084FEA02
:102FF0003202B6EB020E75EB030E22BFB61A75460F
:1030000040EADC0055EA060E18D04FEA051545EAFD
:1030100016754FEA06164FEAC30343EA52734FEAA6
:10302000C2025FEA1C1CC0D111F4801F0BD141EA1F
:1030300000014FF000004FF0004CB6E711F4801F84
:1030400004BF01430020B4F1FD0C88BFBCF5E06F64
:103050003FF6AFAEB5EB030C04BFB6EB020C5FEA74
:10306000500C50F1000041EB045170BD0EF0004EC9
:103070004EEA113114EB5C04C2BFD4EB0C0541EAFB
:10308000045170BD41F480114FF0000E013C90E6F8
:1030900045EA060E8DE60CEA135594EA0C0F08BFBC
:1030A00095EA0C0F3FF43BAF94EA0C0F0AD150EABB
:1030B00001347FF434AF95EA0C0F7FF425AF10464E
:1030C00019462CE795EA0C0F06D152EA03353FF476
:1030D000FDAE1046194622E750EA410618BF52EAF3
:1030E00043067FF4C5AE50EA41047FF40DAF52EAC7
:1030F00043057FF4EBAE12E74FF0FF3C06E000BF64
:103100004FF0010C02E000BF4FF0010C4DF804CD70
:103110004FEA410C7FEA6C5C4FEA430C18BF7FEA30
:103120006C5C1BD001B050EA410C0CBF52EA430C5E
:1031300091EA030F02BF90EA020F0020704710F1DE
:10314000000F91EA030F58BF994208BF90422CBF6D
:10315000D8176FEAE37040F0010070474FEA410C66
:103160007FEA6C5C02D150EA013C07D14FEA430C84
:103170007FEA6C5CD6D152EA033CD3D05DF8040BF5
:10318000704700BF8446104662468C461946634627
:1031900000E000BF01B5FFF7B7FF002848BF10F1FE
:1031A000000F01BD4DF808EDFFF7F4FF0CBF012043
:1031B00000205DF808FB00BF4DF808EDFFF7EAFFBF
:1031C00034BF012000205DF808FB00BF4DF808ED7A
:1031D000FFF7E0FF94BF012000205DF808FB00BF6F
:1031E0004DF808EDFFF7CEFF94BF012000205DF8F9
:1031F00008FB00BF4DF808EDFFF7C4FF34BF012006
:1032000000205DF808FB00BF4FEA410C7FEA6C5CD0
:1032100002D150EA013C0AD14FEA430C7FEA6C5CD0
:1032200002D152EA033C02D14FF0000070474FF048
:10323000010070474FEA410212F5001215D211D574
:103240006FF47873B3EB625212D94FEAC12343F0A3
:10325000004343EA505311F0004F23FA02F018BF25
:10326000404270474FF00000704750EA013005D1EE
:1032700011F0004008BF6FF0004070474FF00000B1
:10328000704700BF53B94AB9002908BF00281CBFC6
:103290004FF0FF314FF0FF3000F060B9ADF1080C96
:1032A0006DE904CE00F006F8DDF804E0DDE9022364
:1032B00004B070472DE9F04F07468C460846099E3A
:1032C00015463C461946002B40F0C6808242B2FAB1
:1032D00082F746D94FB1C7F1200E24FA0EFE00FA4C
:1032E00007F3BD404EEA030CBC404FEA15481FFAF5
:1032F00085FEBCFBF8F9220C08FB19C309FB0EFA8A
:1033000042EA03439A4528D9EB1809F1FF3004D269
:103310009A4502D9A9F102002B44A3EB0A03A4B2F7
:10332000B3FBF8F208FB123302FB0EFE44EA03443F
:10333000A64514D92C1902F1FF3303D2A64501D9B1
:10334000931E2C44A4EB0E0443EA00401EB1FC4043
:10335000002334607360BDE8F08F4846DDE7134614
:10336000F0E702B9FFDE87BB831A01214FEA154E51
:10337000AAB2B3FBFEFC200C0EFB1C330CFB02F8C4
:1033800040EA0343984563D9EB180CF1FF3004D2AF
:10339000984502D9ACF102002B44A3EB0803A4B278
:1033A000B3FBFEFC0EFB1C330CFB02F244EA0344AD
:1033B000A2424FD92C190CF1FF3304D2A24202D9F8
:1033C000ACF102032C44A41ABEE7C7F1200C20FA8A
:1033D0000CF800FA07F324FA0CFCBD404CEA030297
:1033E0004FEA154EABB2B8FBFEFC110C0EFB1C8075
:1033F0000CFB03F941EA0040814504FA07F423D9A4
:1034000028180CF1FF3104D2814502D9ACF1020138
:103410002844A0EB090092B2B0FBFEFC0EFB1C009E
:103420000CFB03F842EA004398450FD9EB180CF166
:10343000FF3204D2984502D9ACF102022B44A3EB2F
:10344000080342EA014191E76146E2E76246F6E796
:103450006046A2E76346B6E7834205D90EB1C6E9E6
:1034600000700021084676E7B3FA83F181B9834200
:1034700001D3BA420AD8BC1A60EB030301209C4670
:10348000002E68D0C6E9004C002164E70846F7E743
:10349000C1F1200C8B4022FA0CF41C4302FA01F516
:1034A00000FA01F327FA0CF220FA0CFB4FEA144958
:1034B0001343BBFBF9F81FFA84FE09FB18BB1A0C77
:1034C00008FB0EFA42EA0B42924507FA01F73ED991
:1034D000A21808F1FF3004D2924502D9A8F10200E7
:1034E0002244A2EB0A029BB2B2FBF9F809FB1822B4
:1034F00008FB0EFE43EA024296452AD9A21808F1BB
:10350000FF3304D2964502D9A8F10203224443EACC
:103510000040A0FB0593A2EB0E029A42CE469846CD
:1035200002D306D14F4504D2B9EB050E63EB040874
:10353000013886B1B7EB0E0362EB080707FA0CFC03
:10354000CB404CEA0303CF40C6E900379CE7404636
:10355000C7E74346DBE73146FDE60000704700BFA2
:103560000028B8BF404270470A22002100F07EB90F
:10357000014B1868704700BF18000020931E222BD3
:1035800010B50C4604D900230B701C46204610BD14
:103590000A2A09D1002807DA2D230B7040420121A5
:1035A000214400F06DF9F1E70021F9E7FFF7E6BFEC
:1035B000024B0146186800F063B800BF18000020F5
:1035C0000A44914200F1FF3300D1704710B511F861
:1035D000014B03F8014F9142F9D110BD024403465B
:1035E000934200D1704703F8011BF9E738B505464F
:1035F000002941D051F8043C0C1F002BB8BFE4183F
:1036000000F0BAF91D4A136833B9636014602846A4
:10361000BDE8384000F0B6B9A34208D920682118A7
:103620008B4201BF19685B6809182160EDE71A46F3
:103630005B680BB1A342FAD911685018A0420BD1B4
:1036400020680144501883421160E0D118685B681B
:10365000536001441160DAE702D90C232B60D6E7EE
:10366000206821188B4204BF19685B68636004BF3F
:10367000091821605460CAE738BD00BF140100205A
:10368000F8B5CD1C25F0030508350C2D38BF0C25E9
:10369000002D064601DBA94203D90C23336000202C
:1036A000F8BD00F069F921490A6814469CB9204F19
:1036B0003B6823B92146304600F03CF83860294683
:1036C000304600F037F8431C23D10C2333603046DA
:1036D00000F058F9E3E723685B1B17D40B2B03D9E1
:1036E00023601C44256004E06368A2420CBF0B60A9
:1036F0005360304600F046F904F10B00231D20F022
:103700000700C21ACCD01B1AA350C9E7224664682E
:10371000CCE7C41C24F00304A042E3D0211A3046B5
:1037200000F008F80130DDD1CFE700BF1401002020
:103730001801002038B5064D0023044608462B60CA
:10374000FDF738FE431C02D12B6803B1236038BD5E
:1037500084000020034611F8012B03F8012B002AF6
:10376000F9D17047034613F8012B002AFBD1181A30
:1037700001387047012B2DE9F047804601D0242BFA
:1037800006D9FFF7F5FE162303600020BDE8F08799
:10379000354F0D46284615F8014BE65D16F0080634
:1037A000F8D12D2C2FD12C780126851C002B57D039
:1037B000102B09D1302C07D1287800F0DF005828D1
:1037C00049D16C781023023506F1004E0EF1FF3E10
:1037D0000027BEFBF3F9384603FB19EAA4F1300CCD
:1037E000BCF1090F14D86446A34222DD002F1DDB73
:1037F00081451BD301D1A24518DB00FB0340012703
:1038000015F8014BEAE72B2C04BF2C78851CCDE77B
:10381000A4F1410CBCF1190F01D8373CE4E7A4F145
:10382000610CBCF1190F04D8573CDDE74FF0FF37AE
:10383000E6E7002F07DA2223C8F800307046002A96
:10384000A4D0691E05E006B14042002A9ED0002F98
:10385000F7D111609AE73024002BB5D10823B3E7E4
:10386000302CA9D00A23AFE7D242000813460A46FB
:10387000014602480068FFF77DBF00BF1800002026
:10388000F0B51F4C8BB005460B466E4604F1200C7C
:1038900020686168374603C7083464453E46F7D15F
:1038A00021793971911E2068386022294FF000017A
:1038B00004D919700B4618460BB0F0BD581E84464B
:1038C000B5FBF2F70DF1280E02FB175676440C46B5
:1038D00016F8286C0CF8016F2E46B24201F1010176
:1038E0003D46EDD900225A541919A51AAA42E2DA26
:1038F00010F8015F0E780670013201F80159F4E703
:10390000AC42000830B51446002C9BB005461A4660
:1039100005DA8B2303604FF0FF301BB030BD4FF44E
:103920000273ADF80C3014BF04F1FF332346029349
:1039300005934FF6FF7300910491ADF80E30694680
:103940001E9B00F081F8431CBCBF8B232B60002C16
:10395000E3D0009B00221A70DFE7000007B5009358
:1039600013460A46014603480068FFF7CBFF03B041
:103970005DF804FB18000020014800F0F9BA00BF10
:103980001C010020014800F0F4BA00BF1C01002017
:103990002DE9F0478E689E4282460C4690461F46AF
:1039A00038D88A8912F4906F32D025680969A5EB5E
:1039B0000109656905EB450505EBD57501334B44F8
:1039C0006D109D4238BF1D46530531D52946FFF77E
:1039D00057FE064650B90C23CAF80030A38943F0BD
:1039E0004003A3814FF0FF30BDE8F08721694A46CC
:1039F000FFF7E6FDA38923F4906343F08003A381DE
:103A0000266165614E44A5EB09052660A5603E462A
:103A1000BE4200D93E4620683246414600F000FBD7
:103A2000A3689B1BA3602368334423600020DBE76B
:103A30002A4600F00FFB06460028E1D121695046D6
:103A4000FFF7D4FDC7E700002DE9F04F98468B89BA
:103A50001B069DB007460D4614460ED50B6963B98B
:103A60004021FFF70DFE2860286120B90C233B6040
:103A70004FF0FF30D1E040236B61002309932023F6
:103A80008DF82930CDF80C803023DFF8A8818DF82F
:103A90002A304FF0010923469A4613F8012B0AB148
:103AA000252AF9D1BAEB040B0BD05B4622462946F6
:103AB0003846FFF76DFF013000F0AA80099A5A449A
:103AC00009929AF80030002B00F0A28000234FF0FA
:103AD000FF32CDE905230AF1010A049307938DF81B
:103AE00053301A935446052214F8011B514800F034
:103AF00047FA049AD8B9D00644BF20238DF8533032
:103B0000110744BF2B238DF853309AF800302A2B2D
:103B100015D0079A544600204FF00A0C214611F8A0
:103B2000013B303B092B4ED9B0B1079214E0A0EB1A
:103B3000080309FA03F313430493A246D2E7039B55
:103B4000191D1B680391002BBBBF5B4242F00202B0
:103B500007930793B8BF049223782E2B0CD1637878
:103B60002A2B35D1039B1A1D1B680392002BB8BF6B
:103B70004FF0FF3302340593DFF8BCA02178032215
:103B8000504600F0FDF940B14023A0EB0A0003FAD3
:103B900000F0049B03430134049314F8011B2748ED
:103BA0008DF82810062200F0EBF9002838D0244BBD
:103BB0001BBB039B073323F0070308330393099BC5
:103BC0003344099367E70CFB02320C460120A5E75A
:103BD00000230134059319464FF00A0C204610F8D3
:103BE000012B303A092A03D9002BC5D00591C3E730
:103BF0000CFB012104460123F0E703AB00932A46A6
:103C0000104B04A93846AFF30080421C0646D6D1BB
:103C1000AB895B063FF52CAF09981DB0BDE8F08F6E
:103C200003AB00932A46074B04A9384600F07AF804
:103C3000EBE700BFD2430008D8430008DC4300088C
:103C400000000000913900082DE9F047164699461A
:103C50008A680B69DDF820809342B8BF1346336051
:103C600091F8432007460C460AB1013333602368BC
:103C7000990642BF336802333360256815F00605A4
:103C800006D104F1190AE36832689B1AAB4226DCBC
:103C900094F84320131E226818BF012392062BD4E8
:103CA00004F1430249463846C04701301ED023681C
:103CB000E568326803F00603042B08BFAD1AA36859
:103CC00022690CBF25EAE57500259342C4BF9B1A03
:103CD000ED1800261A34B5421AD1002008E001235D
:103CE000524649463846C047013003D14FF0FF30B5
:103CF000BDE8F0870135C6E7E1185A1C302081F88D
:103D00004300224494F8451082F843100233C7E779
:103D10000123224649463846C0470130E6D00136E5
:103D2000D9E700002DE9FF470F7E0C9D782F9146C3
:103D300080460C469A4601F1430207D8622F0AD802
:103D4000002F00F0D880582F00F0A38004F1420526
:103D500084F842703AE0A7F16303152BF6D801A16D
:103D600051F823F0BD3D0008D13D00084D3D00084D
:103D70004D3D00084D3D00084D3D0008D13D000877
:103D80004D3D00084D3D00084D3D00084D3D0008EB
:103D9000DD3E0008013E0008BF3E00084D3D000822
:103DA0004D3D0008FF3E00084D3D0008013E000863
:103DB0004D3D00084D3D0008C73E00082B681A1D08
:103DC0001B682A6004F1420584F842300123A3E015
:103DD00020682968060601F104030AD50E682B60E5
:103DE000002E03DA2D23764284F843305E480A23FE
:103DF00019E00E682B6010F0400F18BF36B2EFE7E5
:103E00002B682068191D2960010601D51E6802E093
:103E10004606FBD51E8854486F2F0CBF08230A2383
:103E2000002184F843106568A560002DA2BF2168B9
:103E300021F0040121600EB9002D4DD01546B6FBCE
:103E4000F3F103FB1167C75D05F8017D3746BB42FF
:103E50000E46F4D9082B0BD12368DE0708D5236959
:103E600061689942DEBF302305F8013C05F1FF355A
:103E7000521B2261CDF800A04B4603AA21464046C2
:103E8000FFF7E2FE01304CD14FF0FF3004B0BDE847
:103E9000F087354881F845702968236851F8046B2C
:103EA00029601D0614D5DF0744BF43F020032360BB
:103EB0001EB9236823F0200323601023B0E7236892
:103EC00043F0200323607823284884F84530E3E753
:103ED000590648BFB6B2E6E71546BBE72B68266829
:103EE0006169181D286035061B6801D5196002E05C
:103EF0007006FBD51980002323611546BAE72B68AD
:103F00001A1D2A601D6862680021284600F038F8F2
:103F100008B1401B606063682361002384F843306C
:103F2000A8E723692A4649464046D0470130ABD02E
:103F300023689B0713D4E068039B9842B8BF1846D8
:103F4000A4E70123324649464046D04701309BD082
:103F50000135E36803995B1AAB42F2DCEBE700251D
:103F600004F11906F5E700BFE3430008F443000835
:103F700070477047000000000000000000000000D3
:103F800001F0FF01102A2BDB10F0070F08D010F80A
:103F9000013B013A8B422DD010F0070F42B3F6D10E
:103FA000F0B441EA012141EA014122F007047FF027
:103FB00000070023F0E80256083C85EA010586EA7E
:103FC000010685FA47F5A3FA87F586FA47F6A5FABA
:103FD00087F68EB9EED1F0BC01F0FF0102F00702C6
:103FE00032B110F8013B013A83EA010313B1F8D171
:103FF0000020704701387047002D06BF3546033852
:10400000073815F0010F07D1013015F4807F02BF8A
:10401000013015F4C03F0130F0BC0138704700BFDB
:10402000884210B501EB020402D98442234607D826
:10403000431EA14208D011F8012B03F8012FF8E725
:10404000024401468A4200D110BD13F8014D02F826
:10405000014DF7E72DE9F041804614460E4621B99F
:10406000BDE8F0411146FFF70BBB2AB9FFF7BEFAD6
:1040700025462846BDE8F08100F01BF8844207463B
:1040800002D8B4EB500F12D821464046FFF7F8FA99
:1040900005460028EDD0BC422246314628BF3A46AC
:1040A000FFF78EFA31464046FFF7A0FAE1E73546C2
:1040B000DFE751F8043C181F002BBCBF0B58C01899
:1040C00070470000537461636B206672616D653ADE
:1040D0000A000000205230203D2020253038580AA8
:1040E00000000000205231203D2020253038580AA1
:1040F00000000000205232203D2020253038580A90
:1041000000000000205233203D2020253038580A7E
:104110000000000020523132203D20253038580A5E
:1041200000000000204C52203D2020253038580A45
:1041300000000000205043203D2020253038580A40
:104140000000000020505352203D20253038580AEE
:10415000000000004653522F4641523A0A00000028
:104160002043465352203D2020253038580A000075
:104170002048465352203D2020253038580A000060
:104180002044465352203D2020253038580A000054
:104190002041465352203D2020253038580A000047
:1041A000204D4D464152203D20253038580A000010
:1041B0002042464152203D2020253038580A000038
:1041C0004D6973630A000000204C522F4558435F2D
:1041D00052455455524E3D20253038580A000000B3
:1041E0005B486172644661756C745D0A0000000092
:1041F0005B4275734661756C745D0A005B55736153
:1042000067654661756C745D0A00000025630000F7
:104210002564000025640A002564203D200000007C
:104220004D756C7469706C69636174696F6E3A2066
:104230002564202A2031305E000000004469766940
:1042400073696F6E3A2000002D302E3030393738C8
:1042500000000000466C6F61745F31203D202573C3
:104260000A000000383435332E3231343500000076
:10427000466C6F61745F32203D2025730A00000098
:104280004164646974696F6E3A200000537562740A
:1042900072616374696F6E3A2000000000000000D4
:1042A0000000000001020304060708093031323320
:1042B0003435363738396162636465666768696AC0
:1042C0006B6C6D6E6F707172737475767778797AC6
:1042D00000002020202020202020202828282828F6
:1042E00020202020202020202020202020202020CE
:1042F0002020881010101010101010101010101026
:104300001010040404040404040404041010101025
:1043100010101041414141414101010101010101E0
:104320000101010101010101010101010110101050
:1043300010101042424242424202020202020202B3
:104340000202020202020202020202020210101023
:10435000102000000000000000000000000000002D
:10436000000000000000000000000000000000004D
:10437000000000000000000000000000000000003D
:10438000000000000000000000000000000000002D
:10439000000000000000000000000000000000001D
:1043A000000000000000000000000000000000000D
:1043B00000000000000000000000000000000000FD
:1043C00000000000000000000000000000000000ED
:1043D0000000232D302B2000686C4C00656667457B
:1043E000464700303132333435363738394142436D
:1043F000444546003031323334353637383961621E
:05440000636465660025
:08440800ACEEFF7F0100000093
:1044100078563412880000200000000001FFFFFFE2
:10442000100000000024F4001C0000200000000028
:10443000000000000000000000000000000000007C
:10444000000000000000000000000000000000006C
:10445000000000000000000000000000000000005C
:10446000000000000000000000000000000000004C
:10447000000000000000000000000000000000003C
:104480000000000000000000000000003254769898
:04000005080001AD41
:00000001FF
